{
  "address": "0x8f9af4d54Fc423C066aA17c3C231A5d169e08b29",
  "abi": [
    {
      "anonymous": false,
      "inputs": [
        {
          "indexed": true,
          "internalType": "bytes32",
          "name": "role",
          "type": "bytes32"
        },
        {
          "indexed": true,
          "internalType": "bytes32",
          "name": "previousAdminRole",
          "type": "bytes32"
        },
        {
          "indexed": true,
          "internalType": "bytes32",
          "name": "newAdminRole",
          "type": "bytes32"
        }
      ],
      "name": "RoleAdminChanged",
      "type": "event"
    },
    {
      "anonymous": false,
      "inputs": [
        {
          "indexed": true,
          "internalType": "bytes32",
          "name": "role",
          "type": "bytes32"
        },
        {
          "indexed": true,
          "internalType": "address",
          "name": "account",
          "type": "address"
        },
        {
          "indexed": true,
          "internalType": "address",
          "name": "sender",
          "type": "address"
        }
      ],
      "name": "RoleGranted",
      "type": "event"
    },
    {
      "anonymous": false,
      "inputs": [
        {
          "indexed": true,
          "internalType": "bytes32",
          "name": "role",
          "type": "bytes32"
        },
        {
          "indexed": true,
          "internalType": "address",
          "name": "account",
          "type": "address"
        },
        {
          "indexed": true,
          "internalType": "address",
          "name": "sender",
          "type": "address"
        }
      ],
      "name": "RoleRevoked",
      "type": "event"
    },
    {
      "inputs": [
        {
          "internalType": "address",
          "name": "masterAgreement",
          "type": "address"
        },
        {
          "internalType": "uint256",
          "name": "amount",
          "type": "uint256"
        }
      ],
      "name": "addFreeMarginCross",
      "outputs": [],
      "stateMutability": "nonpayable",
      "type": "function"
    },
    {
      "inputs": [
        {
          "internalType": "address",
          "name": "masterAgreement",
          "type": "address"
        },
        {
          "internalType": "uint256",
          "name": "amount",
          "type": "uint256"
        },
        {
          "internalType": "uint256",
          "name": "positionId",
          "type": "uint256"
        }
      ],
      "name": "addFreeMarginIsolated",
      "outputs": [],
      "stateMutability": "nonpayable",
      "type": "function"
    },
    {
      "inputs": [
        {
          "internalType": "address",
          "name": "masterAgreement",
          "type": "address"
        },
        {
          "internalType": "uint256",
          "name": "positionId",
          "type": "uint256"
        },
        {
          "internalType": "uint256",
          "name": "avgPriceUsd",
          "type": "uint256"
        }
      ],
      "name": "closePosition",
      "outputs": [],
      "stateMutability": "nonpayable",
      "type": "function"
    },
    {
      "inputs": [
        {
          "internalType": "address",
          "name": "masterAgreement",
          "type": "address"
        },
        {
          "internalType": "uint256",
          "name": "rfqId",
          "type": "uint256"
        },
        {
          "internalType": "uint256",
          "name": "filledAmountUnits",
          "type": "uint256"
        },
        {
          "internalType": "uint256",
          "name": "avgPriceUsd",
          "type": "uint256"
        },
        {
          "internalType": "bytes16",
          "name": "uuid",
          "type": "bytes16"
        },
        {
          "internalType": "uint256",
          "name": "lockedMarginB",
          "type": "uint256"
        }
      ],
      "name": "openPosition",
      "outputs": [],
      "stateMutability": "nonpayable",
      "type": "function"
    },
    {
      "inputs": [
        {
          "internalType": "address",
          "name": "masterAgreement",
          "type": "address"
        }
      ],
      "name": "removeFreeMargin",
      "outputs": [],
      "stateMutability": "nonpayable",
      "type": "function"
    },
    {
      "inputs": [
        {
          "internalType": "address",
          "name": "masterAgreement",
          "type": "address"
        },
        {
          "internalType": "uint256",
          "name": "positionId",
          "type": "uint256"
        },
        {
          "internalType": "bytes16",
          "name": "uuid",
          "type": "bytes16"
        }
      ],
      "name": "updateUuid",
      "outputs": [],
      "stateMutability": "nonpayable",
      "type": "function"
    }
  ],
  "transactionHash": "0x7da21c737d733561e5ddb6072429540b82906b73ddc307951e8092b8f5c6f60d",
  "args": [],
  "numDeployments": 3,
  "solcInputHash": "2eee73598a1457eb56a32636508507b6",
  "bytecode": "0x60808060405234610016576107af908161001c8239f35b600080fdfe6040608081526004908136101561001557600080fd5b600091823560e01c806327139585146102c357806342b6f4971461022d578381634fa9c4db146101ce5781635a329eb21461016c575080638a502857146100e45763b3efce131461006557600080fd5b8290346100cf5760203660031901126100cf57610080610337565b6100886103a1565b6001600160a01b031690813b156100e0578351636e885d3960e11b81529183918391829084905af180156100d3576100bf57505051f35b6100c890610377565b6100cf5751f35b5080fd5b50505051903d90823e3d90fd5b8280fd5b50346100e05760603660031901126100e0576100fe610337565b90604435906001600160801b0319821680920361016757849261011f6103a1565b6001600160a01b031691823b156101635760448492838751958694859363b3b6690360e01b85526024359085015260248401525af180156100d3576100bf57505051f35b8380fd5b600080fd5b919050346100cf57826003193601126100cf57610187610337565b61018f6103a1565b6001600160a01b031690813b156100e057829160248392865194859384926348c62cf360e11b84528435908401525af180156100d3576100bf57505051f35b919050346100cf576101df3661034d565b92916101e96103a1565b6001600160a01b0316803b156102295784928360449288519687958694632d6ce61d60e01b865285015260248401525af180156100d3576100bf57505051f35b8480fd5b50346100e05760c03660031901126100e057610247610337565b90608435906001600160801b031982168092036101675784926102686103a1565b6001600160a01b031691823b156101635760a4849283875195869485936372ed04a160e01b855260243590850152604435602485015260643560448501526064840152833560848401525af180156100d3576100bf57505051f35b508290346100cf576102d43661034d565b9290916102df6103a1565b6001600160a01b0316803b1561022957849291836044928851968795869463cc4a368560e01b865285015260248401525af1801561032d5761032057509051f35b61032990610377565b9051f35b83513d84823e3d90fd5b600435906001600160a01b038216820361016757565b6060906003190112610167576004356001600160a01b038116810361016757906024359060443590565b67ffffffffffffffff811161038b57604052565b634e487b7160e01b600052604160045260246000fd5b6103a9610761565b6001600160a01b031660008181527f0bb6a6ade9086eeae1e10e5fabfdef9f509adafcabde3305cdbbeb44e2ec1703602090815260408083205490937fe2f4eaae4a9751e85a3e4a7b9587827a877f29914755229b07a7b2da98285f70929160ff1615610417575050505050565b92845192606084019467ffffffffffffffff9585811087821117610703578752602a855283850191873684378551156106ef57603083538551916001928310156106db576078602188015360295b838111610671575061059b57875190608082018281108982111761065d578952604282528582019260603685378251156106495760308453825181101561064957607860218401536041905b8082116105dd57505061059b5791610530949391889360679899519687936105068886019a7f416363657373436f6e74726f6c3a206163636f756e74200000000000000000008c525180926037880190610717565b8401917001034b99036b4b9b9b4b733903937b6329607d1b60378401525180936048840190610717565b0103602881018552601f1996879101168401968488109088111761058757509261057e60449593601f938880975262461bcd60e51b8752600487015251809281602488015287870190610717565b01168101030190fd5b634e487b7160e01b81526041600452602490fd5b60648589519062461bcd60e51b825280600483015260248201527f537472696e67733a20686578206c656e67746820696e73756666696369656e746044820152fd5b9091600f81166010811015610635576f181899199a1a9b1b9c1cb0b131b232b360811b901a61060c848661073a565b5360041c9180156106215760001901906104b1565b634e487b7160e01b87526011600452602487fd5b634e487b7160e01b88526032600452602488fd5b634e487b7160e01b86526032600452602486fd5b634e487b7160e01b86526041600452602486fd5b90600f811660108110156106c7576f181899199a1a9b1b9c1cb0b131b232b360811b901a61069f838a61073a565b5360041c9080156106b35760001901610465565b634e487b7160e01b86526011600452602486fd5b634e487b7160e01b87526032600452602487fd5b634e487b7160e01b85526032600452602485fd5b634e487b7160e01b84526032600452602484fd5b634e487b7160e01b84526041600452602484fd5b60005b83811061072a5750506000910152565b818101518382015260200161071a565b90815181101561074b570160200190565b634e487b7160e01b600052603260045260246000fd5b7f019ba45a7698f35665571a35d6bdeafc28bded06b4f8713bcdd23743873f3ebe546001600160a01b0316330361079e5736601319013560601c90565b339056fea164736f6c6343000810000a",
  "devdoc": {
    "kind": "dev",
    "methods": {},
    "version": 1
  },
  "userdoc": {
    "kind": "user",
    "methods": {},
    "version": 1
  },
  "storageLayout": {
    "storage": [],
    "types": null
  }
}