{
  "address": "0x30d4732dfA67f08E9513c0F53E30F31dFcEf892C",
  "abi": [
    {
      "anonymous": false,
      "inputs": [
        {
          "indexed": true,
          "internalType": "address",
          "name": "previousOwner",
          "type": "address"
        },
        {
          "indexed": true,
          "internalType": "address",
          "name": "newOwner",
          "type": "address"
        }
      ],
      "name": "OwnershipTransferred",
      "type": "event"
    },
    {
      "inputs": [
        {
          "internalType": "address",
          "name": "masterAgreement",
          "type": "address"
        },
        {
          "internalType": "uint256",
          "name": "amount",
          "type": "uint256"
        }
      ],
      "name": "addFreeMarginCrossOwner",
      "outputs": [],
      "stateMutability": "nonpayable",
      "type": "function"
    },
    {
      "inputs": [
        {
          "internalType": "address",
          "name": "masterAgreement",
          "type": "address"
        },
        {
          "internalType": "uint256",
          "name": "amount",
          "type": "uint256"
        },
        {
          "internalType": "uint256",
          "name": "positionId",
          "type": "uint256"
        }
      ],
      "name": "addFreeMarginIsolatedOwner",
      "outputs": [],
      "stateMutability": "nonpayable",
      "type": "function"
    },
    {
      "inputs": [
        {
          "internalType": "address",
          "name": "masterAgreement",
          "type": "address"
        },
        {
          "internalType": "address",
          "name": "collateral",
          "type": "address"
        }
      ],
      "name": "addMasterAgreement",
      "outputs": [],
      "stateMutability": "nonpayable",
      "type": "function"
    },
    {
      "inputs": [
        {
          "internalType": "address",
          "name": "masterAgreement",
          "type": "address"
        },
        {
          "internalType": "uint256",
          "name": "amount",
          "type": "uint256"
        }
      ],
      "name": "allocate",
      "outputs": [],
      "stateMutability": "nonpayable",
      "type": "function"
    },
    {
      "inputs": [
        {
          "internalType": "address",
          "name": "targetMasterAgreement",
          "type": "address"
        },
        {
          "internalType": "bytes",
          "name": "data",
          "type": "bytes"
        }
      ],
      "name": "callMasterAgreementOwner",
      "outputs": [],
      "stateMutability": "payable",
      "type": "function"
    },
    {
      "inputs": [
        {
          "internalType": "address",
          "name": "masterAgreement",
          "type": "address"
        },
        {
          "internalType": "uint256",
          "name": "amount",
          "type": "uint256"
        }
      ],
      "name": "deallocate",
      "outputs": [],
      "stateMutability": "nonpayable",
      "type": "function"
    },
    {
      "inputs": [
        {
          "internalType": "address",
          "name": "masterAgreement",
          "type": "address"
        },
        {
          "internalType": "uint256",
          "name": "amount",
          "type": "uint256"
        }
      ],
      "name": "deallocateAndWithdraw",
      "outputs": [],
      "stateMutability": "nonpayable",
      "type": "function"
    },
    {
      "inputs": [
        {
          "internalType": "address",
          "name": "masterAgreement",
          "type": "address"
        },
        {
          "internalType": "uint256",
          "name": "amount",
          "type": "uint256"
        }
      ],
      "name": "deposit",
      "outputs": [],
      "stateMutability": "nonpayable",
      "type": "function"
    },
    {
      "inputs": [
        {
          "internalType": "address",
          "name": "masterAgreement",
          "type": "address"
        },
        {
          "internalType": "uint256",
          "name": "amount",
          "type": "uint256"
        }
      ],
      "name": "depositAndAllocate",
      "outputs": [],
      "stateMutability": "nonpayable",
      "type": "function"
    },
    {
      "inputs": [
        {
          "internalType": "address",
          "name": "masterAgreement",
          "type": "address"
        }
      ],
      "name": "removeFreeMarginCross",
      "outputs": [],
      "stateMutability": "nonpayable",
      "type": "function"
    },
    {
      "inputs": [
        {
          "internalType": "address",
          "name": "masterAgreement",
          "type": "address"
        },
        {
          "internalType": "address",
          "name": "collateral",
          "type": "address"
        }
      ],
      "name": "updateCollateral",
      "outputs": [],
      "stateMutability": "nonpayable",
      "type": "function"
    },
    {
      "inputs": [
        {
          "internalType": "address",
          "name": "masterAgreement",
          "type": "address"
        },
        {
          "internalType": "uint256",
          "name": "amount",
          "type": "uint256"
        }
      ],
      "name": "withdraw",
      "outputs": [],
      "stateMutability": "nonpayable",
      "type": "function"
    },
    {
      "inputs": [],
      "name": "withdrawETH",
      "outputs": [],
      "stateMutability": "nonpayable",
      "type": "function"
    }
  ],
  "transactionHash": "0x3af366f2cfe080ce9548ea660f1972f703e7641b51d9840a273511308e7a4943",
  "args": [],
  "numDeployments": 3,
  "solcInputHash": "2eee73598a1457eb56a32636508507b6",
  "bytecode": "0x6080806040523461001657610ecb908161001c8239f35b600080fdfe60806040526004361015610013575b600080fd5b60003560e01c80630405a55614610117578063196bcfc01461010e57806329ff13081461010557806330efbe20146100fc5780633ddc0618146100f357806347e7ef24146100ea57806359db9eb0146100e1578063a5524c95146100d8578063b78b52df146100cf578063cd3d8f01146100c6578063d9a9accb146100bd578063e086e5ec146100b45763f3fef3a3146100ac57600080fd5b61000e61089a565b5061000e610807565b5061000e61078d565b5061000e61068f565b5061000e610615565b5061000e61059b565b5061000e610521565b5061000e6104a7565b5061000e610434565b5061000e6103ba565b5061000e6102b5565b5061000e6101f2565b5061000e61014c565b600435906001600160a01b038216820361000e57565b602435906001600160a01b038216820361000e57565b503461000e57600060603660031901126101ef5780610169610120565b600080516020610e9f833981519152546001600160a01b0391906101909083163314610914565b16803b156101ec57819060446040518094819363cc4a368560e01b83526024356004840152833560248401525af180156101df575b6101d0575b50604051f35b6101d990610a8a565b386101ca565b6101e7610af8565b6101c5565b50fd5b80fd5b50604036600319011261000e57610207610120565b60243567ffffffffffffffff9182821161000e573660238301121561000e57816004013592831161000e57366024848401011161000e57602460009392849361026860018060a01b03600080516020610e9f83398151915254163314610914565b806040519384930183378101848152039134905af1610285610c89565b901561028d57005b6102996102b191610de6565b60405162461bcd60e51b815291829160048301610d6d565b0390fd5b503461000e57604036600319011261000e576102cf610120565b6102d7610136565b906102fa60018060a01b03600080516020610e9f83398151915254163314610914565b60ff61030582610960565b541615610375578161036e6103739361034f8460018060a01b03166000527f56864fc417ad9d57bfe3d7eb59ef81d3a7990ac33d9fb0584608b9f930c45b6d602052604060002090565b80546001600160a01b0319166001600160a01b03909216919091179055565b610999565b005b60405162461bcd60e51b815260206004820152601e60248201527f4d617374657241677265656d656e7420646f6573206e6f7420657869737400006044820152606490fd5b503461000e57600060403660031901126101ef57806103d7610120565b600080516020610e9f833981519152546001600160a01b0391906103fe9083163314610914565b16803b156101ec578190602460405180948193633c1deeaf60e11b8352833560048401525af180156101df576101d05750604051f35b503461000e57600060203660031901126101ef5780610451610120565b600080516020610e9f833981519152546001600160a01b0391906104789083163314610914565b16803b156101ec578190600460405180948193636e885d3960e11b83525af180156101df576101d05750604051f35b503461000e57600060403660031901126101ef57806104c4610120565b600080516020610e9f833981519152546001600160a01b0391906104eb9083163314610914565b16803b156101ec57819060246040518094819363b6b55f2560e01b8352833560048401525af180156101df576101d05750604051f35b503461000e57600060403660031901126101ef578061053e610120565b600080516020610e9f833981519152546001600160a01b0391906105659083163314610914565b16803b156101ec578190602460405180948193636f6c441f60e01b8352833560048401525af180156101df576101d05750604051f35b503461000e57600060403660031901126101ef57806105b8610120565b600080516020610e9f833981519152546001600160a01b0391906105df9083163314610914565b16803b156101ec5781906024604051809481936348c62cf360e11b8352833560048401525af180156101df576101d05750604051f35b503461000e57600060403660031901126101ef5780610632610120565b600080516020610e9f833981519152546001600160a01b0391906106599083163314610914565b16803b156101ec5781906024604051809481936390ca796b60e01b8352833560048401525af180156101df576101d05750604051f35b503461000e57604036600319011261000e576106a9610120565b6106b1610136565b906106d460018060a01b03600080516020610e9f83398151915254163314610914565b60ff6106df82610960565b54166107485761074381610373936106f682610960565b805460ff191660011790556001600160a01b03821660009081527f56864fc417ad9d57bfe3d7eb59ef81d3a7990ac33d9fb0584608b9f930c45b6d6020526040902061036e90829061034f565b610d99565b60405162461bcd60e51b815260206004820152601e60248201527f4d617374657241677265656d656e7420616c72656164792065786973747300006044820152606490fd5b503461000e57600060403660031901126101ef57806107aa610120565b600080516020610e9f833981519152546001600160a01b0391906107d19083163314610914565b16803b156101ec578190602460405180948193636ed5e43160e11b8352833560048401525af180156101df576101d05750604051f35b503461000e576000806003193601126101ef57600080516020610e9f833981519152548190819081906001600160a01b0316610844338214610914565b47604051915af1610853610c89565b501561085e57604051f35b60405162461bcd60e51b81526020600482015260146024820152732330b4b632b2103a379039b2b7321022ba3432b960611b6044820152606490fd5b503461000e57600060403660031901126101ef57806108b7610120565b600080516020610e9f833981519152546001600160a01b0391906108de9083163314610914565b16803b156101ec578190602460405180948193632e1a7d4d60e01b8352833560048401525af180156101df576101d05750604051f35b1561091b57565b60405162461bcd60e51b815260206004820152601d60248201527f4f776e61626c653a2073656e646572206d757374206265206f776e65720000006044820152606490fd5b6001600160a01b031660009081527f56864fc417ad9d57bfe3d7eb59ef81d3a7990ac33d9fb0584608b9f930c45b6c6020526040902090565b604051636eb1769f60e11b81523060048201526001600160a01b038381166024830152610a3693610a239390911691610a3191906109f190602081604481885afa908115610a66575b600091610a38575b5015610b05565b60405163095ea7b360e01b60208201526001600160a01b03909116602482015260001960448201529283906064820190565b03601f198101845283610ac7565b610b9b565b565b610a59915060203d8111610a5f575b610a518183610ac7565b810190610ae9565b386109ea565b503d610a47565b610a6e610af8565b6109e2565b50634e487b7160e01b600052604160045260246000fd5b67ffffffffffffffff8111610a9e57604052565b610aa6610a73565b604052565b6040810190811067ffffffffffffffff821117610a9e57604052565b90601f8019910116810190811067ffffffffffffffff821117610a9e57604052565b9081602091031261000e575190565b506040513d6000823e3d90fd5b15610b0c57565b60405162461bcd60e51b815260206004820152603660248201527f5361666545524332303a20617070726f76652066726f6d206e6f6e2d7a65726f60448201527520746f206e6f6e2d7a65726f20616c6c6f77616e636560501b6064820152608490fd5b60209067ffffffffffffffff8111610b8e575b601f01601f19160190565b610b96610a73565b610b83565b60018060a01b031690610bfa604051610bb381610aab565b6020938482527f5361666545524332303a206c6f772d6c6576656c2063616c6c206661696c6564858301526000808587829751910182855af1610bf4610c89565b91610cb9565b805180610c08575b50505050565b81849181010312610c8557820151908115918215036101ef5750610c2e57808080610c02565b6084906040519062461bcd60e51b82526004820152602a60248201527f5361666545524332303a204552433230206f7065726174696f6e20646964206e6044820152691bdd081cdd58d8d9595960b21b6064820152fd5b5080fd5b3d15610cb4573d90610c9a82610b70565b91610ca86040519384610ac7565b82523d6000602084013e565b606090565b91929015610d1b5750815115610ccd575090565b3b15610cd65790565b60405162461bcd60e51b815260206004820152601d60248201527f416464726573733a2063616c6c20746f206e6f6e2d636f6e74726163740000006044820152606490fd5b825190915015610d2e5750805190602001fd5b60405162461bcd60e51b81529081906102b19060048301610d6d565b60005b838110610d5d5750506000910152565b8181015183820152602001610d4d565b60409160208252610d8d8151809281602086015260208686019101610d4a565b601f01601f1916010190565b6001600160a01b0316803b1561000e5760008091600460405180948193631a12048160e01b83525af18015610dd9575b610dd05750565b610a3690610a8a565b610de1610af8565b610dc9565b6044815110610e645760048101518101906020816024840193031261000e5760248101519067ffffffffffffffff821161000e57018160438201121561000e576024810151610e3481610b70565b92610e426040519485610ac7565b8184526044828401011161000e57610e61916044602085019101610d4a565b90565b50604051610e7181610aab565b601d81527f5472616e73616374696f6e2072657665727465642073696c656e746c7900000060208201529056fea7222481f8aff9c0b8c2a969dffbd3c91ebd3e9fb5b7b31128200b05480e8ab3a164736f6c6343000810000a",
  "devdoc": {
    "kind": "dev",
    "methods": {},
    "version": 1
  },
  "userdoc": {
    "kind": "user",
    "methods": {},
    "version": 1
  },
  "storageLayout": {
    "storage": [],
    "types": null
  }
}