{
  "address": "0xFA8fa584a5258D05C39D34334EeF6fa3C4a357d5",
  "abi": [
    {
      "anonymous": false,
      "inputs": [
        {
          "indexed": true,
          "internalType": "address",
          "name": "previousOwner",
          "type": "address"
        },
        {
          "indexed": true,
          "internalType": "address",
          "name": "newOwner",
          "type": "address"
        }
      ],
      "name": "OwnershipTransferred",
      "type": "event"
    },
    {
      "inputs": [
        {
          "internalType": "address",
          "name": "masterAgreement",
          "type": "address"
        },
        {
          "internalType": "address",
          "name": "collateral",
          "type": "address"
        }
      ],
      "name": "addMasterAgreement",
      "outputs": [],
      "stateMutability": "nonpayable",
      "type": "function"
    },
    {
      "inputs": [
        {
          "internalType": "address",
          "name": "masterAgreement",
          "type": "address"
        },
        {
          "internalType": "uint256",
          "name": "amount",
          "type": "uint256"
        }
      ],
      "name": "allocate",
      "outputs": [],
      "stateMutability": "nonpayable",
      "type": "function"
    },
    {
      "inputs": [
        {
          "internalType": "address",
          "name": "targetMasterAgreement",
          "type": "address"
        },
        {
          "internalType": "bytes",
          "name": "data",
          "type": "bytes"
        }
      ],
      "name": "callMasterAgreementOwner",
      "outputs": [],
      "stateMutability": "payable",
      "type": "function"
    },
    {
      "inputs": [
        {
          "internalType": "address",
          "name": "masterAgreement",
          "type": "address"
        },
        {
          "internalType": "uint256",
          "name": "amount",
          "type": "uint256"
        }
      ],
      "name": "deallocate",
      "outputs": [],
      "stateMutability": "nonpayable",
      "type": "function"
    },
    {
      "inputs": [
        {
          "internalType": "address",
          "name": "masterAgreement",
          "type": "address"
        },
        {
          "internalType": "uint256",
          "name": "amount",
          "type": "uint256"
        }
      ],
      "name": "deallocateAndWithdraw",
      "outputs": [],
      "stateMutability": "nonpayable",
      "type": "function"
    },
    {
      "inputs": [
        {
          "internalType": "address",
          "name": "masterAgreement",
          "type": "address"
        },
        {
          "internalType": "uint256",
          "name": "amount",
          "type": "uint256"
        }
      ],
      "name": "deposit",
      "outputs": [],
      "stateMutability": "nonpayable",
      "type": "function"
    },
    {
      "inputs": [
        {
          "internalType": "address",
          "name": "masterAgreement",
          "type": "address"
        },
        {
          "internalType": "uint256",
          "name": "amount",
          "type": "uint256"
        }
      ],
      "name": "depositAndAllocate",
      "outputs": [],
      "stateMutability": "nonpayable",
      "type": "function"
    },
    {
      "inputs": [
        {
          "internalType": "address",
          "name": "masterAgreement",
          "type": "address"
        },
        {
          "internalType": "address",
          "name": "collateral",
          "type": "address"
        }
      ],
      "name": "updateCollateral",
      "outputs": [],
      "stateMutability": "nonpayable",
      "type": "function"
    },
    {
      "inputs": [
        {
          "internalType": "address",
          "name": "masterAgreement",
          "type": "address"
        },
        {
          "internalType": "uint256",
          "name": "amount",
          "type": "uint256"
        }
      ],
      "name": "withdraw",
      "outputs": [],
      "stateMutability": "nonpayable",
      "type": "function"
    },
    {
      "inputs": [],
      "name": "withdrawETH",
      "outputs": [],
      "stateMutability": "nonpayable",
      "type": "function"
    }
  ],
  "transactionHash": "0x581e5f7ad675ebc39a8443fb77c86436d99078dfbb33dd3ab63cd4d75a37ba03",
  "args": [],
  "numDeployments": 2,
  "solcInputHash": "39d9125f6b1c5391530fb9dfeef962af",
  "bytecode": "0x6080806040523461001657610d11908161001c8239f35b600080fdfe60806040526004361015610013575b600080fd5b6000803560e01c908163196bcfc0146100de5750806329ff1308146100d557806330efbe20146100cc57806347e7ef24146100c357806359db9eb0146100ba578063b78b52df146100b1578063cd3d8f01146100a8578063d9a9accb1461009f578063e086e5ec146100965763f3fef3a31461008e57600080fd5b61000e6106e9565b5061000e610656565b5061000e6105e5565b5061000e6104e7565b5061000e610476565b5061000e610405565b5061000e610394565b5061000e610301565b5061000e6101d6565b60403660031901126101a757806100f36101aa565b6024359067ffffffffffffffff8083116101a257366023840112156101a25782600401359081116101a25736602482850101116101a257839260249161015160018060a01b03600080516020610ce58339815191525416331461075a565b806040519384930183378101848152039134905af161016e610acf565b901561017a5750604051f35b61018661019e91610c2c565b60405162461bcd60e51b815291829160048301610bb3565b0390fd5b505050fd5b80fd5b600435906001600160a01b038216820361000e57565b602435906001600160a01b038216820361000e57565b503461000e57604036600319011261000e576101f06101aa565b6101f86101c0565b9061021b60018060a01b03600080516020610ce58339815191525416331461075a565b60ff610226826107a6565b541615610296578161028f610294936102708460018060a01b03166000527f56864fc417ad9d57bfe3d7eb59ef81d3a7990ac33d9fb0584608b9f930c45b6d602052604060002090565b80546001600160a01b0319166001600160a01b03909216919091179055565b6107df565b005b60405162461bcd60e51b815260206004820152601e60248201527f4d617374657241677265656d656e7420646f6573206e6f7420657869737400006044820152606490fd5b604090600319011261000e576004356001600160a01b038116810361000e579060243590565b503461000e57610310366102db565b600080516020610ce5833981519152546000928392916001600160a01b03919061033d908316331461075a565b16803b1561039057602483926040519485938492633c1deeaf60e11b845260048401525af18015610383575b610374575b50604051f35b61037d906108d0565b3861036e565b61038b61093e565b610369565b5050fd5b503461000e576103a3366102db565b600080516020610ce5833981519152546000928392916001600160a01b0391906103d0908316331461075a565b16803b156103905760248392604051948593849263b6b55f2560e01b845260048401525af18015610383576103745750604051f35b503461000e57610414366102db565b600080516020610ce5833981519152546000928392916001600160a01b039190610441908316331461075a565b16803b1561039057602483926040519485938492636f6c441f60e01b845260048401525af18015610383576103745750604051f35b503461000e57610485366102db565b600080516020610ce5833981519152546000928392916001600160a01b0391906104b2908316331461075a565b16803b15610390576024839260405194859384926390ca796b60e01b845260048401525af18015610383576103745750604051f35b503461000e57604036600319011261000e576105016101aa565b6105096101c0565b9061052c60018060a01b03600080516020610ce58339815191525416331461075a565b60ff610537826107a6565b54166105a05761059b816102949361054e826107a6565b805460ff191660011790556001600160a01b03821660009081527f56864fc417ad9d57bfe3d7eb59ef81d3a7990ac33d9fb0584608b9f930c45b6d6020526040902061028f908290610270565b610bdf565b60405162461bcd60e51b815260206004820152601e60248201527f4d617374657241677265656d656e7420616c72656164792065786973747300006044820152606490fd5b503461000e576105f4366102db565b600080516020610ce5833981519152546000928392916001600160a01b039190610621908316331461075a565b16803b1561039057602483926040519485938492636ed5e43160e11b845260048401525af18015610383576103745750604051f35b503461000e576000806003193601126101a757600080516020610ce5833981519152548190819081906001600160a01b031661069333821461075a565b47604051915af16106a2610acf565b50156106ad57604051f35b60405162461bcd60e51b81526020600482015260146024820152732330b4b632b2103a379039b2b7321022ba3432b960611b6044820152606490fd5b503461000e576106f8366102db565b600080516020610ce5833981519152546000928392916001600160a01b039190610725908316331461075a565b16803b1561039057602483926040519485938492632e1a7d4d60e01b845260048401525af18015610383576103745750604051f35b1561076157565b60405162461bcd60e51b815260206004820152601d60248201527f4f776e61626c653a2073656e646572206d757374206265206f776e65720000006044820152606490fd5b6001600160a01b031660009081527f56864fc417ad9d57bfe3d7eb59ef81d3a7990ac33d9fb0584608b9f930c45b6c6020526040902090565b604051636eb1769f60e11b81523060048201526001600160a01b03838116602483015261087c936108699390911691610877919061083790602081604481885afa9081156108ac575b60009161087e575b501561094b565b60405163095ea7b360e01b60208201526001600160a01b03909116602482015260001960448201529283906064820190565b03601f19810184528361090d565b6109e1565b565b61089f915060203d81116108a5575b610897818361090d565b81019061092f565b38610830565b503d61088d565b6108b461093e565b610828565b50634e487b7160e01b600052604160045260246000fd5b67ffffffffffffffff81116108e457604052565b6108ec6108b9565b604052565b6040810190811067ffffffffffffffff8211176108e457604052565b90601f8019910116810190811067ffffffffffffffff8211176108e457604052565b9081602091031261000e575190565b506040513d6000823e3d90fd5b1561095257565b60405162461bcd60e51b815260206004820152603660248201527f5361666545524332303a20617070726f76652066726f6d206e6f6e2d7a65726f60448201527520746f206e6f6e2d7a65726f20616c6c6f77616e636560501b6064820152608490fd5b60209067ffffffffffffffff81116109d4575b601f01601f19160190565b6109dc6108b9565b6109c9565b60018060a01b031690610a406040516109f9816108f1565b6020938482527f5361666545524332303a206c6f772d6c6576656c2063616c6c206661696c6564858301526000808587829751910182855af1610a3a610acf565b91610aff565b805180610a4e575b50505050565b81849181010312610acb57820151908115918215036101a75750610a7457808080610a48565b6084906040519062461bcd60e51b82526004820152602a60248201527f5361666545524332303a204552433230206f7065726174696f6e20646964206e6044820152691bdd081cdd58d8d9595960b21b6064820152fd5b5080fd5b3d15610afa573d90610ae0826109b6565b91610aee604051938461090d565b82523d6000602084013e565b606090565b91929015610b615750815115610b13575090565b3b15610b1c5790565b60405162461bcd60e51b815260206004820152601d60248201527f416464726573733a2063616c6c20746f206e6f6e2d636f6e74726163740000006044820152606490fd5b825190915015610b745750805190602001fd5b60405162461bcd60e51b815290819061019e9060048301610bb3565b60005b838110610ba35750506000910152565b8181015183820152602001610b93565b60409160208252610bd38151809281602086015260208686019101610b90565b601f01601f1916010190565b6001600160a01b0316803b1561000e5760008091600460405180948193631a12048160e01b83525af18015610c1f575b610c165750565b61087c906108d0565b610c2761093e565b610c0f565b6044815110610caa5760048101518101906020816024840193031261000e5760248101519067ffffffffffffffff821161000e57018160438201121561000e576024810151610c7a816109b6565b92610c88604051948561090d565b8184526044828401011161000e57610ca7916044602085019101610b90565b90565b50604051610cb7816108f1565b601d81527f5472616e73616374696f6e2072657665727465642073696c656e746c7900000060208201529056fea7222481f8aff9c0b8c2a969dffbd3c91ebd3e9fb5b7b31128200b05480e8ab3a164736f6c6343000810000a",
  "devdoc": {
    "kind": "dev",
    "methods": {},
    "version": 1
  },
  "userdoc": {
    "kind": "user",
    "methods": {},
    "version": 1
  },
  "storageLayout": {
    "storage": [],
    "types": null
  }
}